:020000040000fa
:080000000002040000000000f2
:020000040000fa
:04000800a80200004a
:020000040000fa
:04000c0034080000b4
:020000040000fa
:04001000460800009e
:020000040000fa
:040014003c080000a4
:020000040000fa
:040018004e0800008e
:020000040000fa
:04001c00a802000036
:020000040000fa
:04002000a802000032
:020000040000fa
:04002400a80200002e
:020000040000fa
:04002800a80200002a
:020000040000fa
:04002c00a802000026
:020000040000fa
:04003000a802000022
:020000040000fa
:04003400fe050000c5
:020000040000fa
:04003800a80200001a
:020000040000fa
:04003c00a802000016
:020000040000fa
:04004000a802000012
:020000040000fa
:04004400a80200000e
:020000040000fa
:04004800a80200000a
:020000040000fa
:04004c00a802000006
:020000040000fa
:04005000a802000002
:020000040000fa
:04005400a8020000fe
:020000040000fa
:04005800a8020000fa
:020000040000fa
:04005c00a8020000f6
:020000040000fa
:04006000a8020000f2
:020000040000fa
:04006400a8020000ee
:020000040000fa
:04006800a8020000ea
:020000040000fa
:04006c00a8020000e6
:020000040000fa
:04007000a8020000e2
:020000040000fa
:04007400a8020000de
:020000040000fa
:04007800a8020000da
:020000040000fa
:04007c00a8020000d6
:020000040000fa
:04008000a8020000d2
:020000040000fa
:04008400a8020000ce
:020000040000fa
:04008800a8020000ca
:020000040000fa
:04008c00a8020000c6
:020000040000fa
:04009000a8020000c2
:020000040000fa
:04009400a8020000be
:020000040000fa
:04009800a8020000ba
:020000040000fa
:04009c00a8020000b6
:020000040000fa
:0400a000a8020000b2
:020000040000fa
:0400a400a8020000ae
:020000040000fa
:0400a800a8020000aa
:020000040000fa
:0400ac00a8020000a6
:020000040000fa
:0400b000a8020000a2
:020000040000fa
:0400b400a80200009e
:020000040000fa
:0400b800a80200009a
:020000040000fa
:0400bc00a802000096
:020000040000fa
:0400c000a802000092
:020000040000fa
:0400c400a80200008e
:020000040000fa
:0400c800a80200008a
:020000040000fa
:0400cc00a802000086
:020000040000fa
:0400d000a802000082
:020000040000fa
:0400d400a80200007e
:020000040000fa
:0400d800a80200007a
:020000040000fa
:0400dc00a802000076
:020000040000fa
:0400e000a802000072
:020000040000fa
:0400e400a80200006e
:020000040000fa
:0400e800a80200006a
:020000040000fa
:0400ec00a802000066
:020000040000fa
:0400f000a802000062
:020000040000fa
:0400f400a80200005e
:020000040000fa
:0400f800a80200005a
:020000040000fa
:0400fc00a802000056
:020000040000fa
:04010000a802000051
:020000040000fa
:04010400a80200004d
:020000040000fa
:04010800a802000049
:020000040000fa
:04010c00a802000045
:020000040000fa
:04011000a802000041
:020000040000fa
:04011400a80200003d
:020000040000fa
:04011800a802000039
:020000040000fa
:04011c00a802000035
:020000040000fa
:04012000a802000031
:020000040000fa
:04012400a80200002d
:020000040000fa
:04012800a802000029
:020000040000fa
:04012c00a802000025
:020000040000fa
:04013000a802000021
:020000040000fa
:04013400a80200001d
:020000040000fa
:04013800a802000019
:020000040000fa
:04013c00a802000015
:020000040000fa
:04014000a802000011
:020000040000fa
:04014400a80200000d
:020000040000fa
:04014800a802000009
:020000040000fa
:04014c00a802000005
:020000040000fa
:04015000a802000001
:020000040000fa
:04015400a8020000fd
:020000040000fa
:04015800a8020000f9
:020000040000fa
:04015c00a8020000f5
:020000040000fa
:04016000a8020000f1
:020000040000fa
:04016400a8020000ed
:020000040000fa
:04016800a8020000e9
:020000040000fa
:04016c00a8020000e5
:020000040000fa
:04017000a8020000e1
:020000040000fa
:04017400a8020000dd
:020000040000fa
:04017800a8020000d9
:020000040000fa
:04017c00a8020000d5
:020000040000fa
:04018000a8020000d1
:020000040000fa
:04018400a8020000cd
:020000040000fa
:04018800a8020000c9
:020000040000fa
:04018c00a8020000c5
:020000040000fa
:04019000a8020000c1
:020000040000fa
:04019400a8020000bd
:020000040000fa
:04019800a8020000b9
:020000040000fa
:04019c00a8020000b5
:020000040000fa
:0401a000a8020000b1
:020000040000fa
:0401a400a8020000ad
:020000040000fa
:0401a800a8020000a9
:020000040000fa
:0401ac00a8020000a5
:020000040000fa
:04020800a802000048
:020000040000fa
:04020c00a802000044
:020000040000fa
:04021000a802000040
:020000040000fa
:04021400a80200003c
:020000040000fa
:04021800a802000038
:020000040000fa
:04021c00a802000034
:020000040000fa
:04022000a802000030
:020000040000fa
:04022400a80200002c
:020000040000fa
:04022800a802000028
:020000040000fa
:04022c00a802000024
:020000040000fa
:04023000a802000020
:020000040000fa
:04023400a80200001c
:020000040000fa
:04023800a802000018
:020000040000fa
:04023c00a802000014
:020000040000fa
:04024000a802000010
:020000040000fa
:04024400a80200000c
:020000040000fa
:04024800a802000008
:020000040000fa
:04024c00a802000004
:020000040000fa
:04025000a802000000
:020000040000fa
:04025400a8020000fc
:020000040000fa
:04025800a8020000f8
:020000040000fa
:04025c00a8020000f4
:020000040000fa
:04026000a8020000f0
:020000040000fa
:04026400a8020000ec
:020000040000fa
:04026800a8020000e8
:020000040000fa
:04026c00a8020000e4
:020000040000fa
:04027000a8020000e0
:020000040000fa
:04027400a8020000dc
:020000040000fa
:04027800a8020000d8
:020000040000fa
:04027c00a8020000d4
:020000040000fa
:04028000a8020000d0
:020000040000fa
:04028400a8020000cc
:020000040000fa
:04028800a8020000c8
:020000040000fa
:04028c00a8020000c4
:020000040000fa
:04029000a8020000c0
:020000040000fa
:04029400a8020000bc
:020000040000fa
:04029800a8020000b8
:020000040000fa
:04029c00a8020000b4
:020000040000fa
:0402a000a8020000b0
:020000040000fa
:0402a400a8020000ac
:020000040000fa
:0402a800a8020000a8
:020000040000fa
:0402ac00a8020000a4
:020000040000fa
:0402b000a8020000a0
:020000040000fa
:0402b400a80200009c
:020000040000fa
:0402b800a802000098
:020000040000fa
:0402bc00a802000094
:020000040000fa
:0402c000a802000090
:020000040000fa
:0402c400a80200008c
:020000040000fa
:0402c800a802000088
:020000040000fa
:0402cc00a802000084
:020000040000fa
:0402d000a802000080
:020000040000fa
:0402d400a80200007c
:020000040000fa
:0402d800a802000078
:020000040000fa
:0402dc00a802000074
:020000040000fa
:0402e000a802000070
:020000040000fa
:0402e400a80200006c
:020000040000fa
:0402e800a802000068
:020000040000fa
:0402ec00a802000064
:020000040000fa
:0402f000a802000060
:020000040000fa
:0402f400a80200005c
:020000040000fa
:0402f800a802000058
:020000040000fa
:0402fc00a802000054
:020000040000fa
:04030000a80200004f
:020000040000fa
:04030400a80200004b
:020000040000fa
:04030800a802000047
:020000040000fa
:04030c00a802000043
:020000040000fa
:04031000a80200003f
:020000040000fa
:04031400a80200003b
:020000040000fa
:04031800a802000037
:020000040000fa
:04031c00a802000033
:020000040000fa
:04032000a80200002f
:020000040000fa
:04032400a80200002b
:020000040000fa
:04032800a802000027
:020000040000fa
:04032c00a802000023
:020000040000fa
:04033000a80200001f
:020000040000fa
:04033400a80200001b
:020000040000fa
:04033800a802000017
:020000040000fa
:04033c00a802000013
:020000040000fa
:04034000a80200000f
:020000040000fa
:04034400a80200000b
:020000040000fa
:04034800a802000007
:020000040000fa
:04034c00a802000003
:020000040000fa
:04035000a8020000ff
:020000040000fa
:04035400a8020000fb
:020000040000fa
:04035800a8020000f7
:020000040000fa
:04035c00a8020000f3
:020000040000fa
:04036000a8020000ef
:020000040000fa
:04036400a8020000eb
:020000040000fa
:04036800a8020000e7
:020000040000fa
:04036c00a8020000e3
:020000040000fa
:04037000a8020000df
:020000040000fa
:04037400a8020000db
:020000040000fa
:04037800a8020000d7
:020000040000fa
:04037c00a8020000d3
:020000040000fa
:04038000a8020000cf
:020000040000fa
:04038400a8020000cb
:020000040000fa
:04038800a8020000c7
:020000040000fa
:04038c00a8020000c3
:020000040000fa
:04039000a8020000bf
:020000040000fa
:04039400a8020000bb
:020000040000fa
:04039800a8020000b7
:020000040000fa
:04039c00a8020000b3
:020000040000fa
:0403a000a8020000af
:020000040000fa
:0403a400a8020000ab
:020000040000fa
:0403a800a8020000a7
:020000040000fa
:0403ac00a8020000a3
:020000040000fa
:100400004f8420000eff20000e0188000000000035
:10041000000020000000e000020032000001200087
:10042000200288000c0007006085200001002000e9
:1004300011000700000020000000e0000200320070
:100440000000020000000000f204020000000000b2
:100450000040da000000fe004440a9000000200037
:100460000000e0000300320000002000a00188002e
:100470004440a80000000600910188008000780038
:100480000000eb0015003700e280400032a0b4000d
:100490009101ba00e280400032a0b4009102ba009b
:1004a000e280400032a0b4000002eb00472bde00e7
:1004b000f507b200602ce10004003a000059eb009f
:1004c0008301e900fdff3e00040037006128e100e0
:1004d000010032000082eb000b00070011c3ba00dc
:1004e0001101ba000604e00003003a000200e00037
:1004f000e5ff3a0000000600f607b200960188000a
:1005000082007800f5ff37003159ba008301e90015
:100510000c0032002159ba008301e90008003200c2
:100520000400e00003003a00e280400032a0b40082
:10053000f5ff370011d9ba008301e900faff3a004c
:100540008100e800e180400032a0b4000000060015
:100550000040da000000fe006022b8000602200021
:100560000000d0008180d2000482d2008582d200b7
:100570000000a0000202520083825a0003003100f2
:100580000202420083824a000000a1000603e90043
:08059000f3ff3a000000060031
:020000040000fa
:100598000000fa008038210000418800409c2000bb
:1005a80010418800104180008000eb00480add00ff
:1005b800c802de00850272004802dd0000418000aa
:1005c8008000eb000001be000400be00e0ff070051
:1005d8000040780024e8b700803e20002a00070089
:1005e800803e20004000070000712200090007003b
:1005f8002a68ef0024c8bf002be8b70024c8bf0052
:100608005a0007002bc8bf00520007000080fa00fc
:10061800000006000200fa00000f78000041800088
:100628008000eb00823e20000289b90002017800b8
:100638006002b9008401780003014100833e200074
:100648000300b8000101410082007800c80ade00fa
:100658004809dd004802de00040271001e0078002f
:100668008000eb000001be000400be00b8ff0700d8
:10067800000078004041880040418000b201070036
:100688000080fa00000006000200fa00000f78005f
:10069800104180009e0f500002003100114180007f
:1006a800010f78001e0078008000eb00480add008a
:1006b800c802de00850272004802dd0000418000a9
:1006c8008000eb000001be000400be00a0ff070090
:1006d8008040780024c8bf0000c0400025e8b7006b
:1006e8000080fa00000006000200fa00881f780067
:1006f800000f7800104180009e0f5000020031006a
:1007080011418000010f78004882200018447800c9
:100718001e0078008000eb00480add00c802de00f9
:10072800850272004802dd00004180008000eb0075
:100738000001be000400be0085ff070000407800ed
:100748000040540026e8b7004f0478000080fa0003
:10075800000006000200fa00004f78001e80fb002f
:10076800820207000080fa00000006000200fa007a
:10077800004f78001e80fb00890207000080fa0005
:10078800000006000000fa0024c8bf002be8b700ec
:1007980024c8bf00f5ff07002bc8bf00edff070006
:1007a80010c0b3002ae8b7000080fa000000060075
:1007b8000000fa002a68ef0024c8bf002be8b70041
:1007c80024c8bf00e9ff07002bc8bf00e1ff0700ee
:1007d8000080fa00000006000000fa002ac8bf00e6
:1007e8000004e00003003a002cc8bf002ae8b70064
:1007f800030037002ac8bf002ce8b7002a68ef00ba
:100808000080fa00000006000000fa002ac8bf00b5
:100818000080fa00000006000000fa002ac8bf00a5
:10082800e14f50000f003a00630007002000070066
:100838002bc8bf000040e8002be8b7002bc8bf005a
:10084800c4ff0700b18220009140780025c8bf008e
:1008580080cf50001400390020c0b3002ae8b70048
:10086800110037002ac8bf00e24f50000e003a00be
:10087800510007000e0007002bc8bf000040e90028
:100888002be8b7002bc8bf00b2ff0700b1822000d9
:100898009140780026c8bf0080cf500002003e007b
:1008a80010c0b3002ae8b7000080fa000000060074
:1008b8000a00fa00400020006b01070020c3b300c3
:1008c800004f98006000b8001007980021079800b2
:1008d8000040eb00004f78001b0037003101070093
:1008e8000000eb0030079800030037003e0090003e
:1008f8000000e80030079800be009000703e20001d
:10090800808f5000f9ff36002a01070001003700e8
:100918005b010700480107000004a2000004e00092
:10092800fbff3a00400107008000eb001e01900029
:10093800ae01900002004000838048001007980034
:10094800210798001e4fe8000e4890009e4078004e
:1009580080cf5000e1ff39000e4890000080fb0076
:100968008000eb000001be001e009000ae00900069
:10097800f7fe0700100798002107980090c6b300fb
:100988009c0107001e0090000040780099010700b4
:100998001e009000ae0090004809dd004800de000f
:1009a80000007100c808de000040780091010700cf
:1009b8000080fa00000006000000fa0060c7b300db
:1009c8008c0107002bc8bf008a0107000040eb001c
:1009d800880107000080fa00000006000000fa0005
:1009e8002b010700b9000700e9fe0700cd22a80087
:1009f800cd02a900cce2a900ccc2a90005003700ad
:100a0800000000000300370000000000010037006c
:100a180000000000830107006100600000407800ca
:100a28000004e000f6ff3200630107002ee8b7007b
:100a38002ec8bf000080fb006101b900f0f92f004b
:100a4800f1ff2f000200400083804800b200200020
:100a580003002000820f5000838f5800eaff3e00f9
:100a6800006001000b0037000e0037000f00370050
:100a780013003700170037001b0037001c00370031
:100a88001d003700e2ff37001d0037002400370043
:100a98002500370010c6b30056010700cca2a800f5
:100aa80046003700cca2a900440037001101070016
:100ab8008041880080418000f3fe07003f00370036
:100ac8000c010700804188008041800006ff070074
:100ad8003a00370007010700804188008041800004
:100ae800ccfe07003500370026ff0700330037002b
:100af8002fff07003100370037ff07002f003700ae
:100b080041ff07000004e00004003a001801070054
:100b18002ee8b7002ec8bf000eff070027003700d9
:100b280063ff070025003700110107002ee8b70012
:100b38002ec8bf000080fb00e20f50000f003200fb
:100b4800e20f500003003c00e10f500006003200a5
:100b580019003700e30f50000d003200e40f500079
:100b68001000320014003700cd22a800cd02a900e1
:100b7800cce2a900ccc2a9000f003700cd22a90001
:100b8800cd02a800cce2a900ccc2a9000a00370017
:100b9800cd22a900cd02a900cce2a800ccc2a900b0
:100ba80005003700cd22a900cd02a900cce2a9009a
:100bb800ccc2a800000000000000000095ff37002c
:100bc8000000fa000021ef0000c429001008880086
:100bd80000002800200888008460a9009460a8000c
:100be8003868ef0010002000d04188000080fa002b
:100bf800000006003600f800809fbe00829fbe00fd
:100c0800849fbe00869fbe000000fa00e04180007d
:100c18000000e800e0418800e1418000d041800008
:100c2800808f500002003900240007003c28ef00a4
:100c380039c8bf000040e80039e8b70010c0b30069
:100c480038e8b7008460a9000080fa004f03be00ae
:100c58004f02be004f01be004f00be003600f90033
:100c6800004006000200fa00000f78009e0078009d
:100c7800110888003868ef000080fa0000000600bc
:100c88000000fa00100880000080fa00000006004a
:100c98000200fa00000f78009e0078000108880022
:100ca8003868ef000080fa00000006000000fa0033
:100cb800000880000080fa00000006000000fa002a
:100cc800d5fe07000080fa00000006000000fa00c8
:100cd8003868ef009460a80005e1a8000080fa00d9
:100ce800000006000000fa0005e1a9009460a900d0
:100cf8000080fa00000006000200fa00818320004c
:100d080091407800014f78001e4078000004e00010
:100d1800010032003868ef001e4078000080fa00b9
:100d2800000006000000fa0039c8bf000080fb0080
:100d38000080fa00000006000000fa003968ef00a1
:100d48000080fa00000006000200fa00000f780098
:100d58009e007800d14188000080fa00000006005b
:100d68000000fa0000402800001a88004223ef0023
:100d780090f02000201a88004823ef004e23ef004f
:100d88005023ef005623ef006023ef00101a800075
:100d98004200de007f40600040e8b7000080fa00b3
:100da800000006000000fa004023a8000080fa00b6
:100db800000006000000fa004023a9000080fa00a5
:100dc800000006000600fa00200798000030200006
:100dd800100798000000eb00000f78000b003700a8
:100de8001e00780000004000ae0090000080400027
:100df8009e00900091007800010878001e00900085
:100e08000080e800100798001e0fe80040c8bf00e7
:100e18000080fb009e0f5000f1ff3c001e00780090
:100e28000080fa00000006000000fa0000188000a8
:100e38000080fa00000006000000fa00001a800096
:100e480000407800614060000080fb0000f0a700cf
:100e58000000ea000000ea004f00de0000407800d1
:100e68000080fa00000006000200fa00000f780077
:100e78009e007800411a88000080fa0000000600f1
:100e88000000fa0085a0a9000080fa000000060012
:100e98000000fa009b00070008000700c6000700d2
:100ea8003c000700b7000700adff0700a8000700d7
:100eb80043ff07000080fa00000006000000fa0067
:100ec8000001eb006004200071052000237420005d
:100ed8008049780081497800824978000000230021
:100ee800203a88004827ef004e27ef000080fa00dc
:100ef800000006000400fa000000eb00000f780074
:100f08000040eb0020479800130037004500070019
:100f180061006000004078000004e0000e0032002c
:100f28002e4090000040e800204798002e40900096
:100f3800e14f500004003a001f0007000080fb004a
:100f4800000f7800040037001b0007000080fb003a
:100f58004800dd001e0f70002e409000e14f500049
:100f6800eaff36001e0078000080fa000000060044
:100f78000000fa00000000002a000700610060007d
:100f88000000e000fcff32000b0007000080fa00c0
:100f9800000006000000fa00800028008011880088
:100fa8003222ef0070062000c01188003342a800ea
:100fb8000080fa00000006000000fa0000000000af
:100fc80090118000610060000000e000fcff32002a
:100fd80090118000620060000000e0000100320013
:100fe8003222a900b0118000004078000080fa0089
:100ff800000006000200fa00004f78000000000020
:101008009111800000202000008060000000e000b6
:10101800fbff3a001e80fb00a01188000080fa0048
:10102800000006000000fa00901180000080fa001d
:1010380000000600000f78009e007800f14188004b
:10104800ffff37000000fa000080200080077800ca
:1010580080812000000188000080fa00000006005e
:101068003600f8008020a9000000eb00f1ff07001f
:101078003600f800f3ff07008040a90010002000a8
:10108800ecff07003600f8008060a900200020006f
:10109800e8ff07003600f8008080a9003000200033
:0410a800e4ff07005a
:020000040000fa
:1010ac003e0800000200000002000000ffff0000ec
:1010bc0000080000200000000000000038080000bc
:1010cc000600000000000000200800000e000000d8
:1010dc0000000000400800000200000000000000ba
:1010ec002e0800000a00000000000000420800006a
:1010fc00020000000200000001000000f008800067
:020000040000fa
:10110c000000fa00c422ef00cc22ef00f00f200008
:10111c0000168800e0c02a00401688005620ef0018
:10112c005820ef006e20ef007020ef00c622ef0079
:10113c00ce22ef00f000200000278800d03f2f00c7
:10114c00102788000080fa00000006000000fa005a
:10115c0020082800a013880010002000803388008d
:10116c000080fa00000006000200fa00000f780070
:10117c009e007800b11388000080fa000000060081
:10118c000000fa0020082800c0138800100020007e
:10119c00803388000080fa00000006000200fa008c
:1011ac00000f78009e007800d11388000080fa00b0
:1011bc00000006000000fa002005800000c0a0001e
:1011cc0000d0a10000e0a100200588000080fa00fa
:0411dc000000060009
:020000040000fa
:0411e000000000000b
:020000040000fa
:0200000401f009
:04000000ffff0000fe
:020000040000fa
:0200000401f009
:04000800ffff0000f6
:020000040000fa
:0200000401f009
:04000c007fff000072
:020000040000fa
:0200000401f009
:04001000bbff000032
:020000040000fa
:0200000401f009
:040014005fff00008a
:020000040000fa
:0200000401f009
:04001800fcff0000e9
:020000040000fa
:0200000401f009
:04001c00feff0000e3
:00000001FF
